{
  "_format": "hh-sol-artifact-1",
  "contractName": "SupplyChain",
  "sourceName": "contracts/SupplyChain.sol",
  "abi": [
    {
      "inputs": [],
      "stateMutability": "nonpayable",
      "type": "constructor"
    },
    {
      "anonymous": false,
      "inputs": [
        {
          "indexed": true,
          "internalType": "uint256",
          "name": "productId",
          "type": "uint256"
        },
        {
          "indexed": false,
          "internalType": "string",
          "name": "name",
          "type": "string"
        },
        {
          "indexed": false,
          "internalType": "address",
          "name": "manufacturer",
          "type": "address"
        },
        {
          "indexed": false,
          "internalType": "string",
          "name": "location",
          "type": "string"
        }
      ],
      "name": "ProductCreated",
      "type": "event"
    },
    {
      "anonymous": false,
      "inputs": [
        {
          "indexed": true,
          "internalType": "uint256",
          "name": "productId",
          "type": "uint256"
        },
        {
          "indexed": false,
          "internalType": "address",
          "name": "from",
          "type": "address"
        },
        {
          "indexed": false,
          "internalType": "address",
          "name": "to",
          "type": "address"
        },
        {
          "indexed": false,
          "internalType": "string",
          "name": "location",
          "type": "string"
        },
        {
          "indexed": false,
          "internalType": "enum SupplyChain.ProductStatus",
          "name": "status",
          "type": "uint8"
        }
      ],
      "name": "ProductShipped",
      "type": "event"
    },
    {
      "anonymous": false,
      "inputs": [
        {
          "indexed": true,
          "internalType": "uint256",
          "name": "productId",
          "type": "uint256"
        },
        {
          "indexed": false,
          "internalType": "address",
          "name": "from",
          "type": "address"
        },
        {
          "indexed": false,
          "internalType": "address",
          "name": "to",
          "type": "address"
        },
        {
          "indexed": false,
          "internalType": "string",
          "name": "location",
          "type": "string"
        }
      ],
      "name": "ProductSold",
      "type": "event"
    },
    {
      "anonymous": false,
      "inputs": [
        {
          "indexed": true,
          "internalType": "uint256",
          "name": "productId",
          "type": "uint256"
        },
        {
          "indexed": false,
          "internalType": "enum SupplyChain.ProductStatus",
          "name": "newStatus",
          "type": "uint8"
        },
        {
          "indexed": false,
          "internalType": "string",
          "name": "location",
          "type": "string"
        }
      ],
      "name": "ProductStatusUpdated",
      "type": "event"
    },
    {
      "inputs": [
        {
          "internalType": "string",
          "name": "_name",
          "type": "string"
        },
        {
          "internalType": "string",
          "name": "_initialLocation",
          "type": "string"
        }
      ],
      "name": "createProduct",
      "outputs": [],
      "stateMutability": "nonpayable",
      "type": "function"
    },
    {
      "inputs": [
        {
          "internalType": "uint256",
          "name": "_productId",
          "type": "uint256"
        }
      ],
      "name": "getProductDetails",
      "outputs": [
        {
          "internalType": "uint256",
          "name": "",
          "type": "uint256"
        },
        {
          "internalType": "string",
          "name": "",
          "type": "string"
        },
        {
          "internalType": "address",
          "name": "",
          "type": "address"
        },
        {
          "internalType": "address",
          "name": "",
          "type": "address"
        },
        {
          "internalType": "enum SupplyChain.ProductStatus",
          "name": "",
          "type": "uint8"
        },
        {
          "internalType": "string",
          "name": "",
          "type": "string"
        },
        {
          "internalType": "string[]",
          "name": "",
          "type": "string[]"
        }
      ],
      "stateMutability": "view",
      "type": "function"
    },
    {
      "inputs": [
        {
          "internalType": "uint256",
          "name": "_productId",
          "type": "uint256"
        }
      ],
      "name": "getProductHistory",
      "outputs": [
        {
          "internalType": "string[]",
          "name": "",
          "type": "string[]"
        }
      ],
      "stateMutability": "view",
      "type": "function"
    },
    {
      "inputs": [
        {
          "internalType": "address",
          "name": "",
          "type": "address"
        }
      ],
      "name": "isDistributor",
      "outputs": [
        {
          "internalType": "bool",
          "name": "",
          "type": "bool"
        }
      ],
      "stateMutability": "view",
      "type": "function"
    },
    {
      "inputs": [
        {
          "internalType": "address",
          "name": "",
          "type": "address"
        }
      ],
      "name": "isManufacturer",
      "outputs": [
        {
          "internalType": "bool",
          "name": "",
          "type": "bool"
        }
      ],
      "stateMutability": "view",
      "type": "function"
    },
    {
      "inputs": [
        {
          "internalType": "address",
          "name": "",
          "type": "address"
        }
      ],
      "name": "isRetailer",
      "outputs": [
        {
          "internalType": "bool",
          "name": "",
          "type": "bool"
        }
      ],
      "stateMutability": "view",
      "type": "function"
    },
    {
      "inputs": [
        {
          "internalType": "uint256",
          "name": "_productId",
          "type": "uint256"
        },
        {
          "internalType": "address",
          "name": "_to",
          "type": "address"
        },
        {
          "internalType": "string",
          "name": "_finalLocation",
          "type": "string"
        }
      ],
      "name": "markAsSold",
      "outputs": [],
      "stateMutability": "nonpayable",
      "type": "function"
    },
    {
      "inputs": [],
      "name": "owner",
      "outputs": [
        {
          "internalType": "address",
          "name": "",
          "type": "address"
        }
      ],
      "stateMutability": "view",
      "type": "function"
    },
    {
      "inputs": [],
      "name": "productCounter",
      "outputs": [
        {
          "internalType": "uint256",
          "name": "",
          "type": "uint256"
        }
      ],
      "stateMutability": "view",
      "type": "function"
    },
    {
      "inputs": [
        {
          "internalType": "uint256",
          "name": "",
          "type": "uint256"
        }
      ],
      "name": "products",
      "outputs": [
        {
          "internalType": "uint256",
          "name": "productId",
          "type": "uint256"
        },
        {
          "internalType": "string",
          "name": "name",
          "type": "string"
        },
        {
          "internalType": "address",
          "name": "manufacturer",
          "type": "address"
        },
        {
          "internalType": "address",
          "name": "currentOwner",
          "type": "address"
        },
        {
          "internalType": "enum SupplyChain.ProductStatus",
          "name": "status",
          "type": "uint8"
        },
        {
          "internalType": "string",
          "name": "currentLocation",
          "type": "string"
        }
      ],
      "stateMutability": "view",
      "type": "function"
    },
    {
      "inputs": [
        {
          "internalType": "address",
          "name": "_account",
          "type": "address"
        }
      ],
      "name": "registerDistributor",
      "outputs": [],
      "stateMutability": "nonpayable",
      "type": "function"
    },
    {
      "inputs": [
        {
          "internalType": "address",
          "name": "_account",
          "type": "address"
        }
      ],
      "name": "registerManufacturer",
      "outputs": [],
      "stateMutability": "nonpayable",
      "type": "function"
    },
    {
      "inputs": [
        {
          "internalType": "address",
          "name": "_account",
          "type": "address"
        }
      ],
      "name": "registerRetailer",
      "outputs": [],
      "stateMutability": "nonpayable",
      "type": "function"
    },
    {
      "inputs": [
        {
          "internalType": "uint256",
          "name": "_productId",
          "type": "uint256"
        },
        {
          "internalType": "address",
          "name": "_to",
          "type": "address"
        },
        {
          "internalType": "string",
          "name": "_newLocation",
          "type": "string"
        },
        {
          "internalType": "enum SupplyChain.ProductStatus",
          "name": "_newStatus",
          "type": "uint8"
        }
      ],
      "name": "shipProduct",
      "outputs": [],
      "stateMutability": "nonpayable",
      "type": "function"
    },
    {
      "inputs": [
        {
          "internalType": "uint256",
          "name": "_productId",
          "type": "uint256"
        },
        {
          "internalType": "enum SupplyChain.ProductStatus",
          "name": "_newStatus",
          "type": "uint8"
        },
        {
          "internalType": "string",
          "name": "_newLocation",
          "type": "string"
        }
      ],
      "name": "updateProductStatus",
      "outputs": [],
      "stateMutability": "nonpayable",
      "type": "function"
    }
  ],
  "bytecode": "0x608060405234801561001057600080fd5b50336000806101000a81548173ffffffffffffffffffffffffffffffffffffffff021916908373ffffffffffffffffffffffffffffffffffffffff1602179055506129e0806100606000396000f3fe608060405234801561001057600080fd5b50600436106100f55760003560e01c806387592bce116100975780639bf607f9116100665780639bf607f9146102b5578063a83006da146102d1578063c5bf9ae0146102ed578063cbf5fc5614610309576100f5565b806387592bce1461022f5780638da5cb5b1461024b5780638f0c86fa146102695780639adce32b14610299576100f5565b806357a096a1116100d357806357a096a1146101645780635da09b88146101945780636813b53b146101c45780637acc0b20146101fa576100f5565b806317d4a491146100fa5780631f16653b1461012a57806331ab051814610148575b600080fd5b610114600480360381019061010f9190611bb4565b610325565b6040516101219190611bfc565b60405180910390f35b610132610345565b60405161013f9190611c30565b60405180910390f35b610162600480360381019061015d9190611bb4565b61034b565b005b61017e60048036038101906101799190611c77565b610434565b60405161018b9190611df6565b60405180910390f35b6101ae60048036038101906101a99190611bb4565b610523565b6040516101bb9190611bfc565b60405180910390f35b6101de60048036038101906101d99190611c77565b610543565b6040516101f19796959493929190611ee8565b60405180910390f35b610214600480360381019061020f9190611c77565b61089c565b60405161022696959493929190611f6c565b60405180910390f35b61024960048036038101906102449190612110565b610a35565b005b610253610ddc565b6040516102609190612188565b60405180910390f35b610283600480360381019061027e9190611bb4565b610e00565b6040516102909190611bfc565b60405180910390f35b6102b360048036038101906102ae9190611bb4565b610e20565b005b6102cf60048036038101906102ca91906121c8565b610f08565b005b6102eb60048036038101906102e69190611bb4565b6111d1565b005b61030760048036038101906103029190612237565b6112ba565b005b610323600480360381019061031e91906122a6565b6115fe565b005b60016020528060005260406000206000915054906101000a900460ff1681565b60055481565b60008054906101000a900473ffffffffffffffffffffffffffffffffffffffff1673ffffffffffffffffffffffffffffffffffffffff163373ffffffffffffffffffffffffffffffffffffffff16146103d9576040517f08c379a00000000000000000000000000000000000000000000000000000000081526004016103d09061239b565b60405180910390fd5b6001600260008373ffffffffffffffffffffffffffffffffffffffff1673ffffffffffffffffffffffffffffffffffffffff16815260200190815260200160002060006101000a81548160ff02191690831515021790555050565b606060046000838152602001908152602001600020600501805480602002602001604051908101604052809291908181526020016000905b8282101561051857838290600052602060002001805461048b906123ea565b80601f01602080910402602001604051908101604052809291908181526020018280546104b7906123ea565b80156105045780601f106104d957610100808354040283529160200191610504565b820191906000526020600020905b8154815290600101906020018083116104e757829003601f168201915b50505050508152602001906001019061046c565b505050509050919050565b60036020528060005260406000206000915054906101000a900460ff1681565b6000606060008060006060806000600460008a81526020019081526020016000206040518060e001604052908160008201548152602001600182018054610589906123ea565b80601f01602080910402602001604051908101604052809291908181526020018280546105b5906123ea565b80156106025780601f106105d757610100808354040283529160200191610602565b820191906000526020600020905b8154815290600101906020018083116105e557829003601f168201915b505050505081526020016002820160009054906101000a900473ffffffffffffffffffffffffffffffffffffffff1673ffffffffffffffffffffffffffffffffffffffff1673ffffffffffffffffffffffffffffffffffffffff1681526020016003820160009054906101000a900473ffffffffffffffffffffffffffffffffffffffff1673ffffffffffffffffffffffffffffffffffffffff1673ffffffffffffffffffffffffffffffffffffffff1681526020016003820160149054906101000a900460ff1660058111156106dc576106db611e71565b5b60058111156106ee576106ed611e71565b5b8152602001600482018054610702906123ea565b80601f016020809104026020016040519081016040528092919081815260200182805461072e906123ea565b801561077b5780601f106107505761010080835404028352916020019161077b565b820191906000526020600020905b81548152906001019060200180831161075e57829003601f168201915b5050505050815260200160058201805480602002602001604051908101604052809291908181526020016000905b828210156108555783829060005260206000200180546107c8906123ea565b80601f01602080910402602001604051908101604052809291908181526020018280546107f4906123ea565b80156108415780601f1061081657610100808354040283529160200191610841565b820191906000526020600020905b81548152906001019060200180831161082457829003601f168201915b5050505050815260200190600101906107a9565b50505050815250509050806000015181602001518260400151836060015184608001518560a001518660c00151975097509750975097509750975050919395979092949650565b60046020528060005260406000206000915090508060000154908060010180546108c5906123ea565b80601f01602080910402602001604051908101604052809291908181526020018280546108f1906123ea565b801561093e5780601f106109135761010080835404028352916020019161093e565b820191906000526020600020905b81548152906001019060200180831161092157829003601f168201915b5050505050908060020160009054906101000a900473ffffffffffffffffffffffffffffffffffffffff16908060030160009054906101000a900473ffffffffffffffffffffffffffffffffffffffff16908060030160149054906101000a900460ff16908060040180546109b2906123ea565b80601f01602080910402602001604051908101604052809291908181526020018280546109de906123ea565b8015610a2b5780601f10610a0057610100808354040283529160200191610a2b565b820191906000526020600020905b815481529060010190602001808311610a0e57829003601f168201915b5050505050905086565b600160003373ffffffffffffffffffffffffffffffffffffffff1673ffffffffffffffffffffffffffffffffffffffff16815260200190815260200160002060009054906101000a900460ff16610ac1576040517f08c379a0000000000000000000000000000000000000000000000000000000008152600401610ab89061248d565b60405180910390fd5b60056000815480929190610ad4906124dc565b919050555060006004600060055481526020019081526020016000209050600554816000018190555082816001019081610b0e91906126d0565b50338160020160006101000a81548173ffffffffffffffffffffffffffffffffffffffff021916908373ffffffffffffffffffffffffffffffffffffffff160217905550338160030160006101000a81548173ffffffffffffffffffffffffffffffffffffffff021916908373ffffffffffffffffffffffffffffffffffffffff16021790555060008160030160146101000a81548160ff02191690836005811115610bbd57610bbc611e71565b5b021790555081816004019081610bd391906126d0565b508060050180600181540180825580915050600190039060005260206000200160006040518060400160405280600f81526020017f50726f647563742043726561746564000000000000000000000000000000000081525090919091509081610c3c91906126d0565b506005547f1267dd4d0d264b3bf6bf5e39465603994624f59a6abf77565f6df04750ca7e92843385604051610c73939291906127a2565b60405180910390a2610cb96040518060400160405280600e81526020017f4352454154455f50524f44554354000000000000000000000000000000000000815250611927565b610cf76040518060400160405280600581526020017f4e616d653a000000000000000000000000000000000000000000000000000000815250611927565b610d0083611927565b610d3e6040518060400160405280600381526020017f49443a0000000000000000000000000000000000000000000000000000000000815250611927565b610d496005546119c0565b610d876040518060400160405280600d81526020017f4d616e7566616374757265723a00000000000000000000000000000000000000815250611927565b610d9033611a59565b610dce6040518060400160405280600981526020017f4c6f636174696f6e3a0000000000000000000000000000000000000000000000815250611927565b610dd782611927565b505050565b60008054906101000a900473ffffffffffffffffffffffffffffffffffffffff1681565b60026020528060005260406000206000915054906101000a900460ff1681565b60008054906101000a900473ffffffffffffffffffffffffffffffffffffffff1673ffffffffffffffffffffffffffffffffffffffff163373ffffffffffffffffffffffffffffffffffffffff1614610eae576040517f08c379a0000000000000000000000000000000000000000000000000000000008152600401610ea59061239b565b60405180910390fd5b60018060008373ffffffffffffffffffffffffffffffffffffffff1673ffffffffffffffffffffffffffffffffffffffff16815260200190815260200160002060006101000a81548160ff02191690831515021790555050565b823373ffffffffffffffffffffffffffffffffffffffff166004600083815260200190815260200160002060030160009054906101000a900473ffffffffffffffffffffffffffffffffffffffff1673ffffffffffffffffffffffffffffffffffffffff1614610fad576040517f08c379a0000000000000000000000000000000000000000000000000000000008152600401610fa490612859565b60405180910390fd5b6000600460008681526020019081526020016000209050838160030160146101000a81548160ff02191690836005811115610feb57610fea611e71565b5b02179055508281600401908161100191906126d0565b508060050180600181540180825580915050600190039060005260206000200160006040518060400160405280600e81526020017f53746174757320757064617465640000000000000000000000000000000000008152509091909150908161106a91906126d0565b50847f44daa5de12da54053742c33469d00fef71c0fed62c889ea25623964c259154fd858560405161109d929190612879565b60405180910390a26110e36040518060400160405280600d81526020017f5550444154455f53544154555300000000000000000000000000000000000000815250611927565b6111216040518060400160405280600381526020017f49443a0000000000000000000000000000000000000000000000000000000000815250611927565b61112a856119c0565b6111686040518060400160405280600b81526020017f4e6577207374617475733a000000000000000000000000000000000000000000815250611927565b61118384600581111561117e5761117d611e71565b5b6119c0565b6111c16040518060400160405280600d81526020017f4e6577206c6f636174696f6e3a00000000000000000000000000000000000000815250611927565b6111ca83611927565b5050505050565b60008054906101000a900473ffffffffffffffffffffffffffffffffffffffff1673ffffffffffffffffffffffffffffffffffffffff163373ffffffffffffffffffffffffffffffffffffffff161461125f576040517f08c379a00000000000000000000000000000000000000000000000000000000081526004016112569061239b565b60405180910390fd5b6001600360008373ffffffffffffffffffffffffffffffffffffffff1673ffffffffffffffffffffffffffffffffffffffff16815260200190815260200160002060006101000a81548160ff02191690831515021790555050565b823373ffffffffffffffffffffffffffffffffffffffff166004600083815260200190815260200160002060030160009054906101000a900473ffffffffffffffffffffffffffffffffffffffff1673ffffffffffffffffffffffffffffffffffffffff161461135f576040517f08c379a000000000000000000000000000000000000000000000000000000000815260040161135690612859565b60405180910390fd5b6000600460008681526020019081526020016000209050838160030160006101000a81548173ffffffffffffffffffffffffffffffffffffffff021916908373ffffffffffffffffffffffffffffffffffffffff16021790555060058160030160146101000a81548160ff021916908360058111156113e1576113e0611e71565b5b0217905550828160040190816113f791906126d0565b508060050180600181540180825580915050600190039060005260206000200160006040518060400160405280600e81526020017f4d61726b656420617320536f6c640000000000000000000000000000000000008152509091909150908161146091906126d0565b50847f026427d181c8333da86d301d793e181c1aaf68aedcc9eaa99b195303e1f2e27d338686604051611495939291906128a9565b60405180910390a26114db6040518060400160405280600c81526020017f4d41524b5f41535f534f4c440000000000000000000000000000000000000000815250611927565b6115196040518060400160405280600381526020017f49443a0000000000000000000000000000000000000000000000000000000000815250611927565b611522856119c0565b6115606040518060400160405280600581526020017f46726f6d3a000000000000000000000000000000000000000000000000000000815250611927565b61156933611a59565b6115a76040518060400160405280600381526020017f546f3a0000000000000000000000000000000000000000000000000000000000815250611927565b6115b084611a59565b6115ee6040518060400160405280600981526020017f4c6f636174696f6e3a0000000000000000000000000000000000000000000000815250611927565b6115f783611927565b5050505050565b833373ffffffffffffffffffffffffffffffffffffffff166004600083815260200190815260200160002060030160009054906101000a900473ffffffffffffffffffffffffffffffffffffffff1673ffffffffffffffffffffffffffffffffffffffff16146116a3576040517f08c379a000000000000000000000000000000000000000000000000000000000815260040161169a90612859565b60405180910390fd5b6000600460008781526020019081526020016000209050848160030160006101000a81548173ffffffffffffffffffffffffffffffffffffffff021916908373ffffffffffffffffffffffffffffffffffffffff160217905550828160030160146101000a81548160ff0219169083600581111561172457611723611e71565b5b02179055508381600401908161173a91906126d0565b50806005018060018154018082558091505060019003906000526020600020016000604051806060016040528060268152602001612985602691399091909150908161178691906126d0565b50857fa2ed78749a511449701af0f2457e4887702f81d23309202ba696fa9f655c1bd0338787876040516117bd94939291906128e7565b60405180910390a26118036040518060400160405280600c81526020017f534849505f50524f445543540000000000000000000000000000000000000000815250611927565b6118416040518060400160405280600381526020017f49443a0000000000000000000000000000000000000000000000000000000000815250611927565b61184a866119c0565b6118886040518060400160405280600581526020017f46726f6d3a000000000000000000000000000000000000000000000000000000815250611927565b61189133611a59565b6118cf6040518060400160405280600381526020017f546f3a0000000000000000000000000000000000000000000000000000000000815250611927565b6118d885611a59565b6119166040518060400160405280600981526020017f4c6f636174696f6e3a0000000000000000000000000000000000000000000000815250611927565b61191f84611927565b505050505050565b6119bd8160405160240161193b9190612933565b6040516020818303038152906040527f41304fac000000000000000000000000000000000000000000000000000000007bffffffffffffffffffffffffffffffffffffffffffffffffffffffff19166020820180517bffffffffffffffffffffffffffffffffffffffffffffffffffffffff8381831617835250505050611af2565b50565b611a56816040516024016119d49190611c30565b6040516020818303038152906040527ff82c50f1000000000000000000000000000000000000000000000000000000007bffffffffffffffffffffffffffffffffffffffffffffffffffffffff19166020820180517bffffffffffffffffffffffffffffffffffffffffffffffffffffffff8381831617835250505050611af2565b50565b611aef81604051602401611a6d9190612188565b6040516020818303038152906040527f2c2ecbc2000000000000000000000000000000000000000000000000000000007bffffffffffffffffffffffffffffffffffffffffffffffffffffffff19166020820180517bffffffffffffffffffffffffffffffffffffffffffffffffffffffff8381831617835250505050611af2565b50565b611b0981611b01611b0c611b2d565b63ffffffff16565b50565b60006a636f6e736f6c652e6c6f679050600080835160208501845afa505050565b611b38819050919050565b611b40612955565b565b6000604051905090565b600080fd5b600080fd5b600073ffffffffffffffffffffffffffffffffffffffff82169050919050565b6000611b8182611b56565b9050919050565b611b9181611b76565b8114611b9c57600080fd5b50565b600081359050611bae81611b88565b92915050565b600060208284031215611bca57611bc9611b4c565b5b6000611bd884828501611b9f565b91505092915050565b60008115159050919050565b611bf681611be1565b82525050565b6000602082019050611c116000830184611bed565b92915050565b6000819050919050565b611c2a81611c17565b82525050565b6000602082019050611c456000830184611c21565b92915050565b611c5481611c17565b8114611c5f57600080fd5b50565b600081359050611c7181611c4b565b92915050565b600060208284031215611c8d57611c8c611b4c565b5b6000611c9b84828501611c62565b91505092915050565b600081519050919050565b600082825260208201905092915050565b6000819050602082019050919050565b600081519050919050565b600082825260208201905092915050565b60005b83811015611d0a578082015181840152602081019050611cef565b60008484015250505050565b6000601f19601f8301169050919050565b6000611d3282611cd0565b611d3c8185611cdb565b9350611d4c818560208601611cec565b611d5581611d16565b840191505092915050565b6000611d6c8383611d27565b905092915050565b6000602082019050919050565b6000611d8c82611ca4565b611d968185611caf565b935083602082028501611da885611cc0565b8060005b85811015611de45784840389528151611dc58582611d60565b9450611dd083611d74565b925060208a01995050600181019050611dac565b50829750879550505050505092915050565b60006020820190508181036000830152611e108184611d81565b905092915050565b600082825260208201905092915050565b6000611e3482611cd0565b611e3e8185611e18565b9350611e4e818560208601611cec565b611e5781611d16565b840191505092915050565b611e6b81611b76565b82525050565b7f4e487b7100000000000000000000000000000000000000000000000000000000600052602160045260246000fd5b60068110611eb157611eb0611e71565b5b50565b6000819050611ec282611ea0565b919050565b6000611ed282611eb4565b9050919050565b611ee281611ec7565b82525050565b600060e082019050611efd600083018a611c21565b8181036020830152611f0f8189611e29565b9050611f1e6040830188611e62565b611f2b6060830187611e62565b611f386080830186611ed9565b81810360a0830152611f4a8185611e29565b905081810360c0830152611f5e8184611d81565b905098975050505050505050565b600060c082019050611f816000830189611c21565b8181036020830152611f938188611e29565b9050611fa26040830187611e62565b611faf6060830186611e62565b611fbc6080830185611ed9565b81810360a0830152611fce8184611e29565b9050979650505050505050565b600080fd5b600080fd5b7f4e487b7100000000000000000000000000000000000000000000000000000000600052604160045260246000fd5b61201d82611d16565b810181811067ffffffffffffffff8211171561203c5761203b611fe5565b5b80604052505050565b600061204f611b42565b905061205b8282612014565b919050565b600067ffffffffffffffff82111561207b5761207a611fe5565b5b61208482611d16565b9050602081019050919050565b82818337600083830152505050565b60006120b36120ae84612060565b612045565b9050828152602081018484840111156120cf576120ce611fe0565b5b6120da848285612091565b509392505050565b600082601f8301126120f7576120f6611fdb565b5b81356121078482602086016120a0565b91505092915050565b6000806040838503121561212757612126611b4c565b5b600083013567ffffffffffffffff81111561214557612144611b51565b5b612151858286016120e2565b925050602083013567ffffffffffffffff81111561217257612171611b51565b5b61217e858286016120e2565b9150509250929050565b600060208201905061219d6000830184611e62565b92915050565b600681106121b057600080fd5b50565b6000813590506121c2816121a3565b92915050565b6000806000606084860312156121e1576121e0611b4c565b5b60006121ef86828701611c62565b9350506020612200868287016121b3565b925050604084013567ffffffffffffffff81111561222157612220611b51565b5b61222d868287016120e2565b9150509250925092565b6000806000606084860312156122505761224f611b4c565b5b600061225e86828701611c62565b935050602061226f86828701611b9f565b925050604084013567ffffffffffffffff8111156122905761228f611b51565b5b61229c868287016120e2565b9150509250925092565b600080600080608085870312156122c0576122bf611b4c565b5b60006122ce87828801611c62565b94505060206122df87828801611b9f565b935050604085013567ffffffffffffffff811115612300576122ff611b51565b5b61230c878288016120e2565b925050606061231d878288016121b3565b91505092959194509250565b7f4f6e6c7920636f6e7472616374206f776e65722063616e2063616c6c2074686960008201527f732e000000000000000000000000000000000000000000000000000000000000602082015250565b6000612385602283611e18565b915061239082612329565b604082019050919050565b600060208201905081810360008301526123b481612378565b9050919050565b7f4e487b7100000000000000000000000000000000000000000000000000000000600052602260045260246000fd5b6000600282049050600182168061240257607f821691505b602082108103612415576124146123bb565b5b50919050565b7f4f6e6c7920612072656769737465726564206d616e756661637475726572206360008201527f616e206372656174652070726f64756374732e00000000000000000000000000602082015250565b6000612477603383611e18565b91506124828261241b565b604082019050919050565b600060208201905081810360008301526124a68161246a565b9050919050565b7f4e487b7100000000000000000000000000000000000000000000000000000000600052601160045260246000fd5b60006124e782611c17565b91507fffffffffffffffffffffffffffffffffffffffffffffffffffffffffffffffff8203612519576125186124ad565b5b600182019050919050565b60008190508160005260206000209050919050565b60006020601f8301049050919050565b600082821b905092915050565b6000600883026125867fffffffffffffffffffffffffffffffffffffffffffffffffffffffffffffffff82612549565b6125908683612549565b95508019841693508086168417925050509392505050565b6000819050919050565b60006125cd6125c86125c384611c17565b6125a8565b611c17565b9050919050565b6000819050919050565b6125e7836125b2565b6125fb6125f3826125d4565b848454612556565b825550505050565b600090565b612610612603565b61261b8184846125de565b505050565b5b8181101561263f57612634600082612608565b600181019050612621565b5050565b601f8211156126845761265581612524565b61265e84612539565b8101602085101561266d578190505b61268161267985612539565b830182612620565b50505b505050565b600082821c905092915050565b60006126a760001984600802612689565b1980831691505092915050565b60006126c08383612696565b9150826002028217905092915050565b6126d982611cd0565b67ffffffffffffffff8111156126f2576126f1611fe5565b5b6126fc82546123ea565b612707828285612643565b600060209050601f83116001811461273a5760008415612728578287015190505b61273285826126b4565b86555061279a565b601f19841661274886612524565b60005b828110156127705784890151825560018201915060208501945060208101905061274b565b8683101561278d5784890151612789601f891682612696565b8355505b6001600288020188555050505b505050505050565b600060608201905081810360008301526127bc8186611e29565b90506127cb6020830185611e62565b81810360408301526127dd8184611e29565b9050949350505050565b7f43616c6c6572206973206e6f74207468652063757272656e74206f776e65722060008201527f6f66207468652070726f647563742e0000000000000000000000000000000000602082015250565b6000612843602f83611e18565b915061284e826127e7565b604082019050919050565b6000602082019050818103600083015261287281612836565b9050919050565b600060408201905061288e6000830185611ed9565b81810360208301526128a08184611e29565b90509392505050565b60006060820190506128be6000830186611e62565b6128cb6020830185611e62565b81810360408301526128dd8184611e29565b9050949350505050565b60006080820190506128fc6000830187611e62565b6129096020830186611e62565b818103604083015261291b8185611e29565b905061292a6060830184611ed9565b95945050505050565b6000602082019050818103600083015261294d8184611e29565b905092915050565b7f4e487b7100000000000000000000000000000000000000000000000000000000600052605160045260246000fdfe5472616e736665727265642066726f6d206f776e657220746f206e6577206c6f636174696f6ea2646970667358221220da63e18bf324e59e7da821a5a276bbaa0128a9e7ea5865d05507a608a2b9841064736f6c63430008130033",
  "linkReferences": {},
  "deployedLinkReferences": {}
}